8=FIX.4.2^A 9=258^A 35=8^A 128=XYZ^A 34=84^A 49=CCG^A 56=ABC_DEFG04^A 52=20100128-18:54:59^A 55=IOC^A 37=NF 0960/01282010^A 11=NF 0960/01282010^A 17=0^A 20=0^A 39=3^A 150=3^A 54=1^A 38=100^A 40=2^A 44=49.1000^A 59=0^A 31=0^A 32=0^A 14=0^A 6=0^A151=100^A 60=20100128-18:55:00^A 58=Done for Day^A 1=ABC123ZYX^A 30=N^A 47=A^A 207=N^A 29=1^A 10=081^A

8=FIX.4.2^A 9=258^A 35=8^A 50=ARCA^A 128=XYZ^A 34=87^A 49=CCG^A 56=ABC_DEFG04^A 52=20091216-18:00:24^A 55=MMM^A 37=0000002^A 11=NF 0921/12162009^A 17=2000005^A 20=0^A 39=2^A 150=2^A 54=2^A 38=1000^A 40=1^A 59=0^A 31=82.245^A 32=1000^A 14=1000^A 6=82.245^A 151=0^A 60=20091216-18:00:25^A 58=Fill^A 583=91XYZ^A 30=MP^A 207=N^A 9426=N/MP^A 9570=N/MP^A 10=088^A

8=FIX.4.2^A 9=226^A 35=8^A 128=XYZ^A 34=4^A 49=CCG^A 56=ABC_DEFG01^A 52=20090323-15:40:35^A 55=CVS^A 37=NF 0542/03232009^A 11=NF 0542/03232009^A 17=0^A 20=0^A 39=0^A 150=0^A 54=1^A 38=100^A 40=1^A 59=0^A 31=0^A 32=0^A 14=0^A 6=0^A 151=100^A 60=20090323-15:40:30^A 58=New order^A 30=N^A 207=N^A 47=A^A 10=149^A 

8=FIX.4.2^A 9=253^A 35=8^A 128=XYZ^A 34=124^A 49=CCG^A 56=ABC_DEFG04^A 52=20100208-18:51:42^A 55=RRC^A 37=NF 0015/02082010^A 11=NF 0015/02082010^A 17=0^A 20=0^A 39=0^A 150=0^A 54=2^A 38=1000^A 40=2^A 44=55.3600^A 59=0^A 31=0^A 32=0^A 14=0^A 6=0^A 151=1000^A 60=20100208-18:51:42^A 58=New order^A 30=N^A 1=ABC123ZYX^A 207=N^A 47=A^A 10=037^A

8=FIX.4.2^A 9=258^A 35=8^A 50=ARCA^A 128=XYZ^A 34=87^A 49=CCG^A 56=ABC_DEFG04^A 52=20091216-18:00:24^A 55=MMM^A 37=0000002^A 11=NF 0921/12162009^A 17=2000005^A 20=0^A 39=2^A 150=2^A 54=2^A 38=1000^A 40=1^A 59=0^A 31=82.245^A 32=1000^A 14=1000^A 6=82.245^A 151=0^A 60=20091216-18:00:25^A 58=Fill^A 583=91XYZ^A 30=MP^A 207=N^A 9426=N/MP^A 9570=N/MP^A 10=088^A

8=FIX.4.2^A 9=157^A 35=D^A 34=103^A 49=ABC_DEFG01^A 52=20090325-15:08:17^A 56=CCG^A 115=XYZ^A 11=NF 0570/03252009^A 54=1^A 38=1000^A 55=CVS^A 40=2^A 44=25.47^A 59=0^A 47=A^A 60=20090325-15:08:17^A 21=1^A 207=N^A 10=206^A 

8=FIX.4.2^A 9=264^A 35=8^A 128=XYZ^A 34=113^A 49=CCG^A 56=ABC_DEFG01^A 52=20090325-15:08:50^A 55=CVS^A 37=NF 0570/03252009^A 11=NF 0571/03252009^A 41=NF 0570/03252009^A 17=0^A 20=0^A 39=5^A 150=5^A 54=1^A 38=1000^A 40=2^A 44=25.4700^A 59=0^A 31=0^A 32=0^A 14=0^A 6=0^A 151=900^A 60=20090325-15:08:50^A 58=Replaced^A 30=N^A 47=A^A 207=N^A 29=1^A 10=206^A 

8=FIX.4.2^A 9=190^A 35=F^A 34=106^A 49=ABC_DEFG01^A 52=20090325-15:09:11^A 56=CCG^A 115=XYZ^A 41=NF 0570/03252009^A 37=NF 0570/03252009^A 11=NF 0572/03252009^A 54=1^A 38=1000^A 55=CVS^A 60=20090325-15:09:11^A 207=N^A 9428=100^A 9429=800^A 10=125^A 

8=FIX.4.2^A 9=158^A 35=D^A 34=49^A 49=ABC_DEFG04^A 52=20090402-18:11:47^A 56=CCG^A 57=4^A 115=XYZ^A 143=UR^A 11=NF 0644/04022009^A 54=1^A 38=100^A 55=PAC^A 40=1^A 59=0^A 47=A^A 60=20090402-18:11:47^A 21=1^A 207=N^A 10=010^A 

8=FIX.4.2^A 9=153^A 35=D^A 34=11^A 49=ABC_DEFG04^A 52=20091216-17:23:52^A 56=CCG^A 57=ARCA^A 115=XYZ^A 128=MP^A 11=NF 0921/12162009^A 54=2^A 38=1000^A 55=MMM^A 40=1^A 59=0^A 1=ABC123ZYX^A 21=1^A 207=N^A 47=A^A 10=172^A 

8=FIX.4.2^A 9=138^A 35=D^A 34=472^A 49=LEH_LZJ02^A 52=20100302-21:57:44^A 56=CCG^A 115=LZJ^A 11=NF 0039/03022010^A 54=1^A 38=100^A 55=IOC^A 40=1^A 59=0^A 1=ABC123ZYX^A 21=1^A 207=N^A 47=A^A 10=165^A

8=FIX.4.2^A 9=190^A 35=F^A 34=106^A 49=ABC_DEFG01^A 52=20090325-15:09:11^A 56=CCG^A 115=XYZ^A 41=NF 0570/03252009^A 37=NF 0570/03252009^A 11=NF 0572/03252009^A 54=1^A 38=1000^A 55=CVS^A 60=20090325-15:09:11^A 207=N^A 9428=100^A 9429=800^A 10=125^A 

8=FIX.4.2^A 9=159^A 35=D^A 34=50^A 49=ABC_DEFG04^A 52=20090402-18:12:15^A 56=CCG^A 57=4^A 115=XYZ^A 143=UR^A 11=NF 0645/04022009^A 54=1^A 38=1000^A 55=PAC^A 40=1^A 59=0^A 47=A^A 60=20090402-18:12:15^A 21=1^A 207=N^A 10=044^A 

8=FIX.4.2^A 9=153^A 35=D^A 34=11^A 49=ABC_DEFG04^A 52=20091216-17:23:52^A 56=CCG^A 57=ARCA^A 115=XYZ^A 128=MP^A 11=NF 0921/12162009^A 54=2^A 38=1000^A 55=MMM^A 40=1^A 59=0^A 1=ABC123ZYX^A 21=1^A 207=N^A 47=A^A 10=172^A 

8=FIX.4.2^A 9=159^A 35=D^A 34=50^A 49=ABC_DEFG04^A 52=20090402-18:12:15^A 56=CCG^A 57=4^A 115=XYZ^A 143=UR^A 11=NF 0645/04022009^A 54=1^A 38=1000^A 55=FB^A 40=1^A 59=0^A 47=A^A 60=20090402-18:12:15^A 21=1^A 207=N^A 10=044^A 

8=FIX.4.2^A 9=153^A 35=D^A 34=11^A 49=ABC_DEFG04^A 52=20091216-17:23:52^A 56=CCG^A 57=ARCA^A 115=XYZ^A 128=MP^A 11=NF 0921/12162009^A 54=2^A 38=1000^A 55=AMZN^A 40=1^A 59=0^A 1=ABC123ZYX^A 21=1^A 207=N^A 47=A^A 10=172^A 

8=FIX.4.2^A 9=226^A 35=8^A 128=XYZ^A 34=4^A 49=CCG^A 56=ABC_DEFG01^A 52=20090323-15:40:35^A 55=CVS^A 37=NF 0542/03232009^A 11=NF 0542/03232009^A 17=0^A 20=0^A 39=0^A 150=0^A 54=1^A 38=100^A 40=1^A 59=0^A 31=0^A 32=0^A 14=0^A 6=0^A 151=100^A 60=20090323-15:40:30^A 58=New order^A 30=N^A 207=N^A 47=A^A 10=149^A 

8=FIX.4.2^A 9=226^A 35=8^A 128=XYZ^A 34=4^A 49=CCG^A 56=ABC_DEFG01^A 52=20090323-15:40:35^A 55=AMZN^A 37=NF 0542/03232009^A 11=NF 0542/03232009^A 17=0^A 20=0^A 39=0^A 150=0^A 54=1^A 38=100^A 40=1^A 59=0^A 31=0^A 32=0^A 14=0^A 6=0^A 151=100^A 60=20090323-15:40:30^A 58=New order^A 30=N^A 207=N^A 47=A^A 10=149^A 

8=FIX.4.2^A 9=226^A 35=8^A 128=XYZ^A 34=4^A 49=CCG^A 56=ABC_DEFG01^A 52=20090323-15:40:35^A 55=FB^A 37=NF 0542/03232009^A 11=NF 0542/03232009^A 17=0^A 20=0^A 39=0^A 150=0^A 54=1^A 38=100^A 40=1^A 59=0^A 31=0^A 32=0^A 14=0^A 6=0^A 151=100^A 60=20090323-15:40:30^A 58=New order^A 30=N^A 207=N^A 47=A^A 10=149^A 

8=FIX.4.2^A 9=145^A 35=D^A 34=4^A 49=ABC_DEFG01^A 52=20090323-15:40:29^A 56=CCG^A 115=XYZ^A 11=NF 0542/03232009^A 54=1^A 38=100^A 55=CVS^A 40=1^A 59=0^A 47=A^A 60=20090323-15:40:29^A 21=1^A 207=N^A 10=139^A 

8=FIX.4.2^A 9=378^A 35=8^A 128=XYZ^A 34=5^A 49=CCG^A 56=ABC_DEFG01^A 52=20090323-15:40:35^A 55=CVS^A 37=NF 0542/03232009^A 11=NF 0542/03232009^A 17=NF 0542/03232009 001001001^A 20=0^A 39=2^A 150=2^A 54=1^A 38=100^A 40=1^A 59=0^A 31=25.4800^A 32=100^A 14=0^A 6=0^A 151=0^A 60=20090323-15:40:30^A 58=Fill^A 30=N^A 76=0034^A 207=N^A 47=A^A 9430=NX^A 9483=000008^A 9578=1^A 382=1^A 375=TOD^A 337=0000^A 437=100^A 438=1243^A 9579=0000100001^A 9426=2/2^A 9433=0034^A 29=1^A 63=0^A 9440=001001001^A 10=080^A 
