8=FIX.4.2^A 9=145^A 35=D^A 34=4^A 49=ABC_DEFG01^A 52=20090323-15:40:29^A 56=CCG^A 115=XYZ^A 11=NF 0542/03232009^A 54=1^A 38=100^A 55=CVS^A 40=1^A 59=0^A 47=A^A 60=20090323-15:40:29^A 21=1^A 207=N^A 10=139^A

8=FIX.4.2^A 9=226^A 35=8^A 128=XYZ^A 34=4^A 49=CCG^A 56=ABC_DEFG01^A 52=20090323- 15:40:35^A 55=CVS^A 37=NF 0542/03232009^A 11=NF 0542/03232009^A 17=0^A 20=0^A 39=0^A 150=0^A 54=1^A 38=100^A 40=1^A 59=0^A 31=0^A 32=0^A 14=0^A 6=0^A 151=100^A 60=20090323- 15:40:30^A 58=New order^A 30=N^A 207=N^A 47=A^A 10=149^A

8=FIX.4.2^A 9=156^A 35=D^A 34=124^A 49=ABC_DEFG04^A 52=20100208-18:51:42^A 56=CCG^A 115=XYZ^A 11=NF 0015/02082010^A 54=2^A 38=1000^A 55=RRC^A 40=2^A 44=55.36^A 59=0^A 1=ABC123ZYX^A 21=1^A 207=N^A 47=A^A 9487=CO^A 10=050^A


8=FIX.4.2^A 9=253^A 35=8^A 128=XYZ^A 34=124^A 49=CCG^A 56=ABC_DEFG04^A 52=20100208-18:51:42^A 55=RRC^A 37=NF 0015/02082010^A 11=NF 0015/02082010^A 17=0^A 20=0^A 39=0^A 150=0^A 54=2^A 38=1000^A 40=2^A 44=55.3600^A 59=0^A 31=0^A 32=0^A 14=0^A 6=0^A 151=1000^A 60=20100208-18:51:42^A 58=New order^A 30=N^A 1=ABC123ZYX^A 207=N^A 47=A^A 10=037^A

8=FIX.4.2^A 9=153^A 35=D^A 34=11^A 49=ABC_DEFG04^A 52=20091216-17:23:52^A 56=CCG^A 57=ARCA^A 115=XYZ^A 128=MP^A 11=NF 0921/12162009^A 54=2^A 38=1000^A 55=MMM^A 40=1^A 59=0^A 1=ABC123ZYX^A 21=1^A 207=N^A 47=A^A 10=172^A

8=FIX.4.2^A 9=234^A 35=8^A 50=ARCA^A 128=XYZ^A 34=11^A 49=CCG^A 56=ABC_DEFG04^A 52=20091216-17:23:51^A 55=MMM^A 37=0000002^A 11=NF 0921/12162009^A 17=1000002^A 20=0^A 39=0^A 150=0^A 54=2^A 38=1000^A 40=1^A 59=0^A 31=0^A 32=0^A 14=0^A 6=0^A 151=1000^A 60=20091216-17:23:52^A 58=New order^A 207=N^A 9570=N/MP^A 10=051^A

8=FIX.4.2^A 9=147^A 35=D^A 34=215^A 49=ABC_DEFG04^A 52=20100208-19:36:45^A 56=CCG^A 115=XYZ^A 11=NF 0016/02082010^A 54=1^A 38=1000^A 55=VOD^A 40=2^A 44=.995^A 59=0^A 1=ABC123ZYX^A 21=1^A 207=N^A 47=A^A 10=100^A

8=FIX.4.2^A 9=252^A 35=8^A 128=XYZ^A 34=215^A 49=CCG^A 56=ABC_DEFG04^A 52=20100208-19:36:45^A 55=VOD^A 37=NF 0016/02082010^A 11=NF 0016/02082010^A 17=0^A 20=0^A 39=0^A 150=0^A 54=1^A 38=1000^A 40=2^A 44=0.9950^A 59=0^A 31=0^A 32=0^A 14=0^A 6=0^A 151=1000^A 60=20100208-19:36:45^A 58=New order^A 30=A^A 1=ABC123ZYX^A 207=A^A 47=A^A 10=240^A

8=FIX.4.2^A 9=154^A 35=D^A 34=578^A 49=LEH_LZJ02^A 52=20100302-22:50:34^A 56=CCG^A 115=LZJ^A 11=NF 0040/03022010^A 54=1^A 38=1000^A 55=IOC^A 40=2^A 44=49.38^A 59=0^A 1=ABC123ZYX^A 21=1^A 207=N^A 47=A^A 111=0^A 10=121^A

8=FIX.4.2^A 9=162^A 35=D^A 34=3^A 49=LEH_LZJ02^A 52=20100303-15:17:05^A 56=CCG^A 57=4^A 115=LZJ^A 143=ER^A 11=NF 0041/03032010^A 54=1^A 38=99999900^A 55=MMM^A 40=2^A 44=50.00^A 59=0^A 1=ABC123ZYX^A 21=1^A 207=N^A 47=A^A 10=069^A

8=FIX.4.2^A 9=150^A 35=D^A 34=13^A 49=LEH_LZJ02^A 52=20100303-15:21:52^A 56=CCG^A 115=LZJ^A 11=NF 0043/03032010^A 54=1^A 38=100^A 55=ADM^A 65=PRA^A 40=2^A 44=25^A 59=0^A 1=ABC123ZYX^A 21=1^A 207=N^A 47=A^A 10=237^A

8=FIX.4.2^A 9=137^A 35=D^A 34=47^A 49=LEH_LZJ02^A 52=20100303-15:38:27^A 56=CCG^A 115=LZJ^A 11=NF 0045/03032010^A 54=1^A 38=100^A 55=AXU^A 40=1^A 59=0^A 1=ABC123ZYX^A 21=1^A 207=A^A 47=A^A 10=122^A

8=FIX.4.2^A 9=177^A 35=D^A 34=5^A 49=LEH_LZJ02^A 52=20100303-16:23:34^A 56=CCG^A 57=4^A 115=LZJ^A 143=ER^A 11=NF 0048/03032010^A 54=1^A 38=100^A 55=JZE^A 40=2^A 44=25^A 59=0^A 1=ABC123ZYX^A 63=8^A 64=20100310^A 21=1^A 207=N^A 47=A^A 287=5^A 10=199^A

8=FIX.4.2^A 9=147^A 35=D^A 34=3^A 49=LEH_LZJ02^A 52=20100303-20:31:56^A 56=CCG^A 115=LZJ^A 11=NF 0050/03032010^A 54=1^A 38=100^A 55=MMM^A 40=2^A 44=50^A 59=1^A 1=ABC123ZYX^A 21=1^A 18=F^A 207=N^A 47=A^A 10=054^A

8=FIX.4.2^A 9=378^A 35=8^A 128=XYZ^A 34=5^A 49=CCG^A 56=ABC_DEFG01^A 52=20090323- 15:40:35^A 55=CVS^A 37=NF 0542/03232009^A 11=NF 0542/03232009^A 17=NF 0542/03232009 001001001^A 20=0^A 39=2^A 150=2^A 54=1^A 38=100^A 40=1^A 59=0^A 31=25.4800^A 32=100^A 14=0^A 6=0^A 151=0^A 60=20090323-15:40:30^A 58=Fill^A 30=N^A 76=0034^A 207=N^A 47=A^A 9430=NX^A 9483=000008^A 9578=1^A 382=1^A 375=TOD^A 337=0000^A 437=100^A 438=1243^A 9579=0000100001^A 9426=2/2^A 9433=0034^A 29=1^A 63=0^A 9440=001001001^A 10=080^A

8=FIX.4.2^A 9=389^A 35=8^A 128=XYZ^A 34=27^A 49=CCG^A 56=ABC_DEFG01^A 52=20090325- 14:28:10^A 55=CVS^A 37=NF 0568/03252009^A 11=NF 0568/03252009^A 17=NF 0568/03252009 001001001^A 20=0^A 39=1^A 150=1^A 54=2^A 38=500^A 40=1^A 59=0^A 31=25.4700^A 32=100^A 14=0^A 6=0^A 151=400^A 60=20090325-14:28:12^A 58=Partial Fill^A 30=N^A 76=0034^A 207=N^A 47=A^A 9430=NX^A 9483=000006^A 9578=1^A 382=1^A 375=TOD^A 337=0000^A 437=100^A 438=1134^A 9579=0000100001^A 9426=1^A 9433=0034^A 29=1^A 63=0^A 9440=001001001^A 10=251^A

8=FIX.4.2^A 9=379^A 35=8^A 128=XYZ^A 34=28^A 49=CCG^A 56=ABC_DEFG01^A 52=20090325- 14:28:10^A 55=CVS^A 37=NF 0568/03252009^A 11=NF 0568/03252009^A 17=NF 0568/03252009 002002002^A 20=0^A 39=2^A 150=2^A 54=2^A 38=500^A 40=1^A 59=0^A 31=25.2800^A 32=400^A 14=0^A 6=0^A 151=0^A 60=20090325-14:28:12^A 58=Fill^A 30=N^A 76=0034^A 207=N^A 47=A^A 9430=NX^A 9483=000007^A 9578=1^A 382=1^A 375=TOD^A 337=0000^A 437=400^A 438=1134^A 9579=0000200002^A 9433=0034^A 29=1^A 63=0^A 9440=002002002^A 10=186^A

8=FIX.4.2^A 9=258^A 35=8^A 128=XYZ^A 34=84^A 49=CCG^A 56=ABC_DEFG04^A 52=20100128- 18:54:59^A 55=IOC^A 37=NF 0960/01282010^A 11=NF 0960/01282010^A 17=0^A 20=0^A 39=3^A 150=3^A 54=1^A 38=100^A 40=2^A 44=49.1000^A 59=0^A 31=0^A 32=0^A 14=0^A 6=0^A 151=100^A 60=20100128-18:55:00^A 58=Done for Day^A 1=ABC123ZYX^A 30=N^A 47=A^A 207=N^A 29=1^A 10=081^A

8=FIX.4.2^A 9=398^A 35=8^A 128=XYZ^A 34=126^A 49=CCG^A 56=ABC_DEFG04^A 52=20100208- 18:52:05^A 55=RRC^A 37=NF 0015/02082010^A 11=NF 0015/02082010^A 17=NF 0015/02082010 001001001^A 20=0^A 39=2^A 150=2^A 54=2^A 38=1000^A 40=2^A 44=55.3600^A 59=0^A 31=55.3600^A 32=1000^A 14=0^A 6=0^A 151=0^A 60=20100208-18:52:06^A 58=Fill^A 1=ABC123ZYX^A 30=N^A 76=0210^A 207=N^A 47=A^A 9483=000008^A 9578=7^A 382=1^A 375=LOC^A 337=0000^A 437=1000^A 438=1353^A 9579=0000100001^A 9426=7^A 9433=0210^A 29=1^A 63=0^A 9440=001001001^A 10=076^A

8=FIX.4.2^A 9=258^A 35=8^A 50=ARCA^A 128=XYZ^A 34=87^A 49=CCG^A 56=ABC_DEFG04^A 52=20091216-18:00:24^A 55=MMM^A 37=0000002^A 11=NF 0921/12162009^A 17=2000005^A 20=0^A 39=2^A 150=2^A 54=2^A 38=1000^A 40=1^A 59=0^A 31=82.245^A 32=1000^A 14=1000^A 6=82.245^A 151=0^A 60=20091216-18:00:25^A 58=Fill^A 583=91XYZ^A 30=MP^A 207=N^A 9426=N/MP^A 9570=N/MP^A 10=088^A

8=FIX.4.2^A 9=404^A 35=8^A 128=XYZ^A 34=216^A 49=CCG^A 56=ABC_DEFG04^A 52=20100208-19:36:45^A 55=VOD^A 37=NF 0016/02082010^A 11=NF 0016/02082010^A 17=NF 0016/02082010 001001001^A 20=0^A 39=2^A 150=2^A 54=1^A 38=1000^A 40=2^A 44=0.9950^A 59=0^A 31=0.4000^A 32=1000^A 14=0^A 6=0^A 151=0^A 60=20100208-19:36:45^A 58=Fill^A 1=ABC123ZYX^A 30=A^A 76=0210^A 207=A^A 47=A^A 9430=NX^A 9483=000004^A 9578=1^A 382=1^A 375=LOC^A 337=0000^A 437=1000^A 438=1437^A 9579=0000100001^A 9426=1^A 9433=0210^A 29=1^A 63=0^A 9440=001001001^A 10=121^A

8=FIX.4.2^A 9=394^A 35=8^A 128=LZJ^A 34=23^A 49=CCG^A 56=LEH_LZJ02^A 52=20100303- 16:31:36^A 55=MMM^A 37=NF 0049/03032010^A 11=NF 0049/03032010^A 17=NF 0049/03032010 001001001^A 20=0^A 39=2^A 150=2^A 54=1^A 38=1000^A 40=1^A 59=0^A 31=75.8700^A 32=1000^A 14=0^A 6=0^A 151=0^A 60=20100303-16:31:37^A 58=Fill^A 1=ABC123ZYX^A 30=N^A 76=0210^A 207=N^A 47=A^A 9430=NX^A 9483=000016^A 9570=D/EDGA^A 382=1^A 375=TOD^A 337=0000^A 437=1000^A 438=1133^A 9579=0000100001^A 9433=0210^A 29=1^A 63=0^A 9440=001001001^A 10=196^A

8=FIX.4.2^A 9=155^A 35=D^A 34=17^A 49=ABC_DEFG01^A 52=20090325-14:26:15^A 56=CCG^A 115=XYZ^A 11=NF 0565/03252009^A 54=1^A 38=100^A 55=CVS^A 40=2^A 44=24.47^A 59=0^A 47=A^A 60=20090325-14:26:15^A 21=1^A 207=N^A 10=109^A

8=FIX.4.2^A 9=170^A 35=F^A 34=39^A 49=ABC_DEFG01^A 52=20090325-14:36:17^A 56=CCG^A 115=XYZ^A 41=NF 0565/03252009^A 37=NF 0565/03252009^A 11=NF 0569/03252009^A 54=1^A 38=100^A 55=CVS^A 60=20090325-14:36:17^A 207=N^A 10=228^A

8=FIX.4.2^A 9=235^A 35=8^A 128=XYZ^A 34=45^A 49=CCG^A 56=ABC_DEFG01^A 52=20090325- 14:36:18^A 55=CVS^A 37=NF 0565/03252009^A 11=NF 0569/03252009^A 41=NF 0565/03252009^A 17=0^A 20=0^A 39=6^A 150=6^A 54=1^A 38=100^A 31=0^A 32=0^A 14=0^A 6=0^A 151=0^A 60=20090325-14:36:20^A 58=Cancel Pending^A 207=N^A 30=N^A 10=170^A

8=FIX.4.2^A 9=258^A 35=8^A 128=XYZ^A 34=46^A 49=CCG^A 56=ABC_DEFG01^A 52=20090325- 14:36:18^A 55=CVS^A 37=NF 0565/03252009^A 11=NF 0569/03252009^A 41=NF 0565/03252009^A 17=0^A 20=0^A 39=4^A 150=4^A 54=1^A 38=100^A 40=2^A 44=24.4700^A 59=0^A 31=0^A 32=0^A 14=0^A 6=0^A 151=0^A 60=20090325-14:36:20^A 58=UR OUT^A 30=N^A 47=A^A 207=N^A 29=1^A 10=185^A

8=FIX.4.2^A 9=157^A 35=D^A 34=103^A 49=ABC_DEFG01^A 52=20090325-15:08:17^A 56=CCG^A 115=XYZ^A 11=NF 0570/03252009^A 54=1^A 38=1000^A 55=CVS^A 40=2^A 44=25.47^A 59=0^A 47=A^A 60=20090325-15:08:17^A 21=1^A 207=N^A 10=206^A

8=FIX.4.2^A 9=190^A 35=F^A 34=105^A 49=ABC_DEFG01^A 52=20090325-15:08:50^A 56=CCG^A 115=XYZ^A 41=NF 0570/03252009^A 37=NF 0570/03252009^A 11=NF 0571/03252009^A 54=1^A 38=1000^A 55=CVS^A 60=20090325-15:08:50^A 207=N^A 9428=100^A 9429=900^A 10=128^A

8=FIX.4.2^A 9=237^A 35=8^A 128=XYZ^A 34=112^A 49=CCG^A 56=ABC_DEFG01^A 52=20090325- 15:08:50^A 55=CVS^A 37=NF 0570/03252009^A 11=NF 0571/03252009^A 41=NF 0570/03252009^A 17=0^A 20=0^A 39=6^A 150=6^A 54=1^A 38=1000^A 31=0^A 32=0^A 14=0^A 6=0^A 151=0^A 60=20090325-15:08:50^A 58=Cancel Pending^A 207=N^A 30=N^A 10=247^A

8=FIX.4.2^A 9=264^A 35=8^A 128=XYZ^A 34=113^A 49=CCG^A 56=ABC_DEFG01^A 52=20090325- 15:08:50^A 55=CVS^A 37=NF 0570/03252009^A 11=NF 0571/03252009^A 41=NF 0570/03252009^A 17=0^A 20=0^A 39=5^A 150=5^A 54=1^A 38=1000^A 40=2^A 44=25.4700^A 59=0^A 31=0^A 32=0^A 14=0^A 6=0^A 151=900^A 60=20090325-15:08:50^A 58=Replaced^A 30=N^A 47=A^A 207=N^A 29=1^A 10=206^A

8=FIX.4.2^A 9=190^A 35=F^A 34=106^A 49=ABC_DEFG01^A 52=20090325-15:09:11^A 56=CCG^A 115=XYZ^A 41=NF 0570/03252009^A 37=NF 0570/03252009^A 11=NF 0572/03252009^A 54=1^A 38=1000^A 55=CVS^A 60=20090325-15:09:11^A 207=N^A 9428=100^A 9429=800^A 10=125^A

8=FIX.4.2^A 9=237^A 35=8^A 128=XYZ^A 34=114^A 49=CCG^A 56=ABC_DEFG01^A 52=20090325- 15:09:12^A 55=CVS^A 37=NF 0570/03252009^A 11=NF 0572/03252009^A 41=NF 0570/03252009^A 17=0^A 20=0^A 39=6^A 150=6^A 54=1^A 38=1000^A 31=0^A 32=0^A 14=0^A 6=0^A 151=0^A 60=20090325-15:09:12^A 58=Cancel Pending^A 207=N^A 30=N^A 10=248^A

8=FIX.4.2^A 9=264^A 35=8^A 128=XYZ^A 34=115^A 49=CCG^A 56=ABC_DEFG01^A 52=20090325- 15:09:12^A 55=CVS^A 37=NF 0570/03252009^A 11=NF 0572/03252009^A 41=NF 0570/03252009^A 17=0^A 20=0^A 39=5^A 150=5^A 54=1^A 38=1000^A 40=2^A 44=25.4700^A 59=0^A 31=0^A 32=0^A 14=0^A 6=0^A 151=800^A 60=20090325-15:09:12^A 58=Replaced^A 30=N^A 47=A^A 207=N^A 29=1^A 10=206^A

8=FIX.4.2^A 9=157^A 35=D^A 34=117^A 49=ABC_DEFG01^A 52=20090325-15:14:27^A 56=CCG^A 115=XYZ^A 11=NF 0573/03252009^A 54=1^A 38=1000^A 55=CVS^A 40=2^A 44=25.47^A 59=0^A 47=A^A 60=20090325-15:14:27^A 21=1^A 207=N^A 10=210^A

8=FIX.4.2^A 9=197^A 35=G^A 34=118^A 49=ABC_DEFG01^A 52=20090325-15:14:47^A 56=CCG^A 115=XYZ^A 11=NF 0574/03252009^A 37=NF 0573/03252009^A 41=NF 0573/03252009^A 54=1^A 38=2000^A 55=CVS^A 40=2^A 44=25.47^A 59=0^A 47=A^A 60=20090325-15:14:47^A 21=1^A 207=N^A 10=185^A

8=FIX.4.2^A 9=237^A 35=8^A 128=XYZ^A 34=127^A 49=CCG^A 56=ABC_DEFG01^A 52=20090325- 15:14:47^A 55=CVS^A 37=NF 0574/03252009^A 11=NF 0574/03252009^A 41=NF 0573/03252009^A 17=0^A 20=0^A 39=E^A 150=E^A 54=1^A 38=2000^A 40=2^A 31=0^A 32=0^A 14=0^A 6=0^A 60=20090325-15:14:48^A 58=Replace Pending^A 207=N^A 30=N^A 10=114^A

8=FIX.4.2^A 9=265^A 35=8^A 128=XYZ^A 34=128^A 49=CCG^A 56=ABC_DEFG01^A 52=20090325- 15:14:47^A 55=CVS^A 37=NF 0573/03252009^A 11=NF 0574/03252009^A 41=NF 0573/03252009^A 17=0^A 20=0^A 39=5^A 150=5^A 54=1^A 38=2000^A 40=2^A 44=25.4700^A 59=0^A 31=0^A 32=0^A 14=0^A 6=0^A 151=2000^A 60=20090325-15:14:48^A 58=Replaced^A 30=N^A 47=A^A 207=N^A 29=1^A 10=015^A

8=FIX.4.2^A 9=197^A 35=G^A 34=119^A 49=ABC_DEFG01^A 52=20090325-15:15:04^A 56=CCG^A 115=XYZ^A 11=NF 0575/03252009^A 37=NF 0574/03252009^A 41=NF 0574/03252009^A 54=1^A 38=2000^A 55=CVS^A 40=2^A 44=25.46^A 59=0^A 47=A^A 60=20090325-15:15:04^A 21=1^A 207=N^A 10=176^A

8=FIX.4.2^A 9=237^A 35=8^A 128=XYZ^A 34=129^A 49=CCG^A 56=ABC_DEFG01^A 52=20090325- 15:15:04^A 55=CVS^A 37=NF 0575/03252009^A 11=NF 0575/03252009^A 41=NF 0574/03252009^A 17=0^A 20=0^A 39=E^A 150=E^A 54=1^A 38=2000^A 40=2^A 31=0^A 32=0^A 14=0^A 6=0^A 60=20090325-15:15:05^A 58=Replace Pending^A 207=N^A 30=N^A 10=107^A

8=FIX.4.2^A 9=265^A 35=8^A 128=XYZ^A 34=130^A 49=CCG^A 56=ABC_DEFG01^A 52=20090325- 15:15:04^A 55=CVS^A 37=NF 0574/03252009^A 11=NF 0575/03252009^A 41=NF 0574/03252009^A 17=0^A 20=0^A 39=5^A 150=5^A 54=1^A 38=2000^A 40=2^A 44=25.4600^A 59=0^A 31=0^A 32=0^A 14=0^A 6=0^A 151=2000^A 60=20090325-15:15:05^A 58=Replaced^A 30=N^A 47=A^A 207=N^A 29=1^A 10=254^A

8=FIX.4.2^A 9=157^A 35=D^A 34=129^A 49=ABC_DEFG01^A 52=20090325-15:19:49^A 56=CCG^A 115=XYZ^A 11=NF 0576/03252009^A 54=1^A 38=1000^A 55=CVS^A 40=2^A 44=25.47^A 59=0^A 47=A^A 60=20090325-15:19:49^A 21=1^A 207=N^A 10=234^A

8=FIX.4.2^A 9=190^A 35=F^A 34=130^A 49=ABC_DEFG01^A 52=20090325-15:20:13^A 56=CCG^A 115=XYZ^A 41=NF 0576/03252009^A 37=NF 0576/03252009^A 11=NF 0577/03252009^A 54=1^A 38=1000^A 55=CVS^A 60=20090325-15:20:13^A 1=1^A 207=N^A 9428=100^A 9429=900^A 10=130^A

8=FIX.4.2^A 9=237^A 35=8^A 128=XYZ^A 34=141^A 49=CCG^A 56=ABC_DEFG01^A 52=20090325- 15:20:14^A 55=CVS^A 37=NF 0576/03252009^A 11=NF 0577/03252009^A 41=NF 0576/03252009^A 17=0^A 20=0^A 39=6^A 150=6^A 54=1^A 38=1000^A 31=0^A 32=0^A 14=0^A 6=0^A 151=0^A 60=20090325-15:20:15^A 58=Cancel Pending^A 207=N^A 30=N^A 10=000^A

8=FIX.4.2^A 9=264^A 35=8^A 128=XYZ^A 34=142^A 49=CCG^A 56=ABC_DEFG01^A 52=20090325- 15:20:14^A 55=CVS^A 37=NF 0576/03252009^A 11=NF 0577/03252009^A 41=NF 0576/03252009^A 17=0^A 20=0^A 39=5^A 150=5^A 54=1^A 38=1000^A 40=2^A 44=25.4700^A 59=0^A 31=0^A 32=0^A 14=0^A 6=0^A 151=900^A 60=20090325-15:20:15^A 58=Replaced^A 30=N^A 47=A^A 207=N^A 29=1^A 10=215^A

8=FIX.4.2^A 9=197^A 35=G^A 34=131^A 49=ABC_DEFG01^A 52=20090325-15:20:32^A 56=CCG^A 115=XYZ^A 11=NF 0578/03252009^A 37=NF 0576/03252009^A 41=NF 0576/03252009^A 54=1^A 38=2000^A 55=CVS^A 40=2^A 44=25.47^A 59=0^A 47=A^A 60=20090325-15:20:32^A 21=1^A 207=N^A 10=172^A

8=FIX.4.2^A 9=237^A 35=8^A 128=XYZ^A 34=143^A 49=CCG^A 56=ABC_DEFG01^A 52=20090325- 15:20:33^A 55=CVS^A 37=NF 0578/03252009^A 11=NF 0578/03252009^A 41=NF 0576/03252009^A 17=0^A 20=0^A 39=E^A 150=E^A 54=1^A 38=2000^A 40=2^A 31=0^A 32=0^A 14=0^A 6=0^A 60=20090325-15:20:34^A 58=Replace Pending^A 207=N^A 30=N^A 10=107^A

8=FIX.4.2^A 9=265^A 35=8^A 128=XYZ^A 34=144^A 49=CCG^A 56=ABC_DEFG01^A 52=20090325- 15:20:33^A 55=CVS^A 37=NF 0576/03252009^A 11=NF 0578/03252009^A 41=NF 0576/03252009^A 17=0^A 20=0^A 39=5^A 150=5^A 54=1^A 38=2000^A 40=2^A 44=25.4700^A 59=0^A 31=0^A 32=0^A 14=0^A 6=0^A 151=2000^A 60=20090325-15:20:34^A 58=Replaced^A 30=N^A 47=A^A 207=N^A 29=1^A 10=007^A

8=FIX.4.2^A 9=158^A 35=D^A 34=49^A 49=ABC_DEFG04^A 52=20090402-18:11:47^A 56=CCG^A 57=4^A 115=XYZ^A 143=UR^A 11=NF 0644/04022009^A 54=1^A 38=100^A 55=PAC^A 40=1^A 59=0^A 47=A^A 60=20090402-18:11:47^A 21=1^A 207=N^A 10=010^A

8=FIX.4.2^A 9=227^A 35=8^A 128=XYZ^A 34=49^A 49=CCG^A 56=ABC_DEFG04^A 52=20090402- 18:11:47^A 55=PAC^A 37=NF 0644/04022009^A 11=NF 0644/04022009^A 17=0^A 20=0^A 39=0^A 150=0^A 54=1^A 38=100^A 40=1^A 59=0^A 31=0^A 32=0^A 14=0^A 6=0^A 151=100^A 60=20090402- 18:11:47^A 58=New order^A 47=A^A 207=N^A 30=N^A 10=194^A

8=FIX.4.2^A 9=350^A 35=8^A 128=XYZ^A 34=68^A 49=CCG^A 56=ABC_DEFG04^A 52=20090402- 18:20:08^A 55=PAC^A 37=NF 0644/04022009^A 11=NF 0644/04022009^A 17=NF 0644/04022009 001001001^A 20=0^A 39=2^A 150=2^A 54=1^A 38=100^A 40=1^A 59=0^A 31=17.00^A 32=100^A 14=0^A 6=0^A 151=0^A 60=20090402-18:20:06^A 58=Fill^A 76=8080^A 9433=8080^A 47=A^A 9579=0000100001^A 9440=001001001^A 382=1^A 375=BARC^A 337=0000^A 437=100^A 438=1420^A 63=0^A 29=1^A 207=N^A 30=N^A 10=206^A

8=FIX.4.2^A 9=377^A 35=8^A 128=XYZ^A 34=69^A 49=CCG^A 56=ABC_DEFG04^A 52=20090402- 18:20:29^A 55=PAC^A 37=NF 0644/04022009^A 11=NF 0644/04022009^A 17=NF 0644/04022009 001001002^A 20=2^A 39=2^A 150=2^A 54=1^A 38=100^A 40=1^A 59=0^A 31=16.77^A 32=100^A 14=0^A 6=0^A 151=0^A 60=20090402-18:20:28^A 47=A^A 9579=0000100002^A 9440=001001002^A 19=NF 0644/04022009 001001001^A 9704=0000100001^A 29=1^A 9425=5^A 382=1^A 375=BARC^A 337=0000^A 437=100^A 438=1420^A 63=0^A 207=N^A 30=N^A 10=091^A

8=FIX.4.2^A 9=397^A 35=8^A 128=XYZ^A 34=70^A 49=CCG^A 56=ABC_DEFG04^A 52=20090402- 18:20:41^A 55=PAC^A 37=NF 0644/04022009^A 11=NF 0644/04022009^A 17=NF 0644/04022009 001001003^A 20=1^A 39=1^A 150=1^A 54=1^A 38=100^A 40=1^A 59=0^A 31=16.77^A 32=100^A 14=0^A 6=0^A 151=100^A 60=20090402-18:20:40^A 9579=0000100003^A 9440=001001003^A 382=1^A 375=BARC^A 337=0000^A 437=100^A 438=1420^A 76=8080^A 9433=8080^A 19=NF 0644/04022009 001001002^A 9704=0000100002^A 9425=1^A 47=A^A 63=0^A 29=1^A 207=N^A 30=N^A 10=004^A

8=FIX.4.2^A 9=138^A 35=D^A 34=472^A 49=LEH_LZJ02^A 52=20100302-21:57:44^A 56=CCG^A 115=LZJ^A 11=NF 0039/03022010^A 54=1^A 38=100^A 55=IOC^A 40=1^A 59=0^A 1=ABC123ZYX^A 21=1^A 207=N^A 47=A^A 10=165^A

8=FIX.4.2^A 9=240^A 35=8^A 128=LZJ^A 34=471^A 49=CCG^A 56=LEH_LZJ02^A 52=20100302- 21:57:44^A 55=IOC^A 37=NF 0039/03022010^A 11=NF 0039/03022010^A 17=0^A 20=0^A 39=0^A 150=0^A 54=1^A 38=100^A 40=1^A 59=0^A 31=0^A 32=0^A 14=0^A 6=0^A 151=100^A 60=20100302- 21:57:44^A 58=New order^A 30=N^A 1=ABC123ZYX^A 207=N^A 47=A^A 10=173^A

8=FIX.4.2^A 9=392^A 35=8^A 128=LZJ^A 34=472^A 49=CCG^A 56=LEH_LZJ02^A 52=20100302- 21:57:44^A 55=IOC^A 37=NF 0039/03022010^A 11=NF 0039/03022010^A 17=NF 0039/03022010 001001001^A 20=0^A 39=2^A 150=2^A 54=1^A 38=100^A 40=1^A 59=0^A 31=49.3700^A 32=100^A 14=0^A 6=0^A 151=0^A 60=20100302-21:57:44^A 58=Fill^A 1=ABC123ZYX^A 30=N^A 76=0210^A 207=N^A 47=A^A 9430=NX^A 9483=000010^A 9578=1^A 382=1^A 375=TOD^A 337=0000^A 437=100^A 438=1715^A 9579=0000100001^A 9433=0210^A 29=1^A 63=0^A 9440=001001001^A 10=087^A

8=FIX.4.2^A 9=439^A 35=8^A 128=LZJ^A 34=549^A 49=CCG^A 56=LEH_LZJ02^A 52=20100302- 22:36:15^A 55=IOC^A 37=NF 0039/03022010^A 11=NF 0039/03022010^A 17=NF 0039/03022010 001001002^A 20=2^A 39=2^A 150=2^A 54=1^A 38=100^A 40=1^A 59=0^A 31=49.3700^A 32=100^A 14=0^A 6=0^A 151=0^A 60=20100302-22:36:16^A 58=Trade correction^A 19=NF 0039/03022010 001001001^A 1=ABC123ZYX^A 30=N^A 207=N^A 47=A^A 9430=NX^A 9483=000010^A 9578=1^A 9425=5^A 9579=0000100002^A 9704=0000100001^A 382=1^A 375=TOD^A 337=0000^A 437=100^A 438=1736^A 29=1^A 63=0^A 9440=001001002^A 10=203^A

8=FIX.4.2^A 9=434^A 35=8^A 128=LZJ^A 34=555^A 49=CCG^A 56=LEH_LZJ02^A 52=20100302- 22:38:59^A 55=IOC^A 37=NF 0039/03022010^A 11=NF 0039/03022010^A 17=NF 0039/03022010 001001003^A 20=1^A 39=2^A 150=2^A 54=1^A 38=100^A 40=1^A 59=0^A 31=49.3700^A 32=100^A 14=0^A 6=0^A 151=0^A 60=20100302-22:36:16^A 58=Trade break^A 19=NF 0039/03022010 001001002^A 1=ABC123ZYX^A 30=N^A 207=N^A 47=A^A 9430=NX^A 9483=000010^A 9578=1^A 9425=1^A 382=1^A 375=TOD^A 337=0000^A 437=100^A 438=1736^A 9579=0000100003^A 9704=0000100002^A 29=1^A 63=0^A 9440=001001003^A 10=154^A

8=FIX.4.2^A 9=159^A 35=D^A 34=50^A 49=ABC_DEFG04^A 52=20090402-18:12:15^A 56=CCG^A 57=4^A 115=XYZ^A 143=UR^A 11=NF 0645/04022009^A 54=1^A 38=1000^A 55=PAC^A 40=1^A 59=0^A 47=A^A 60=20090402-18:12:15^A 21=1^A 207=N^A 10=044^A

8=FIX.4.2^A 9=229^A 35=8^A 128=XYZ^A 34=50^A 49=CCG^A 56=ABC_DEFG04^A 52=20090402- 18:12:15^A 55=PAC^A 37=NF 0645/04022009^A 11=NF 0645/04022009^A 17=0^A 20=0^A 39=0^A 150=0^A 54=1^A 38=1000^A 40=1^A 59=0^A 31=0^A 32=0^A 14=0^A 6=0^A 151=1000^A 60=20090402-18:12:15^A 58=New order^A 47=A^A 207=N^A 30=N^A 10=022^A

8=FIX.4.2^A 9=451^A 35=8^A 128=XYZ^A 34=52^A 49=CCG^A 56=ABC_DEFG04^A 52=20090402- 18:13:13^A 55=PAC^A 37=NF 0645/04022009^A 11=NF 0645/04022009^A 17=NF 0645/04022009 001001001^A 20=0^A 39=2^A 150=2^A 54=1^A 38=1000^A 40=1^A 59=0^A 31=17.00^A 32=1000^A 14=0^A 6=0^A 151=0^A 60=20090402-18:13:11^A 58=Fill^A 76=0123^A 9433=0123^A 47=A^A 9579=0000100001^A 9440=001001001^A 382=1^A 375=SB^A 337=0234^A 437=1000^A 438=1413^A 63=0^A 29=1^A 207=N^A 30=N^A 10=116^A

8=FIX.4.2^A 9=154^A 35=D^A 34=57^A 49=ABC_DEFG04^A 52=20090402-18:15:40^A 56=CCG^A 115=XYZ^A 143=100^A 11=NF 0646/04022009^A 54=1^A 38=100^A 55=PAC^A 40=1^A 59=0^A 47=A^A 60=20090402-18:15:40^A 21=1^A 207=N^A 10=013^A

8=FIX.4.2^A 9=196^A 35=8^A 128=XYZ^A 142=100^A 34=58^A 49=CCG^A 56=ABC_DEFG04^A 52=20090402-18:15:46^A 11=NF 0646/04022009^A 6=0^A 14=0^A 17=0^A 20=0^A 31=0^A 32=0^A 37=NF 0646/04022009^A 38=100^A 39=0^A 47=A^A 54=1^A 55=PAC^A 58=New order^A 150=0^A 207=N^A 30=N^A 10=019^A

8=FIX.4.2^A 9=326^A 35=8^A 128=XYZ^A 142=100^A 34=60^A 49=CCG^A 56=ABC_DEFG04^A 52=20090402-18:16:29^A 6=0^A 14=0^A 17=NF 0646/04022009 001001001^A 20=0^A 31=17^A 32=100^A 37=NF 0646/04022009^A 38=100^A 39=2^A 54=1^A 55=PAC^A 150=2^A 151=0^A 11=NF 0646/04022009^A 30=N^A 40=1^A 47=A^A 59=0^A 60=20090402-18:16:17^A 76=0100^A 207=N^A 382=1^A 375=A^A 337=234^A 437=100^A 438=141615^A 9579=0000100001^A 9440=001001001^A 10=132^A
